{
  "_format": "hh-sol-artifact-1",
  "contractName": "TrustlessDonation",
  "sourceName": "contracts/TrustlessDonation.sol",
  "abi": [
    {
      "inputs": [
        {
          "internalType": "contract DonationToken",
          "name": "donationToken",
          "type": "address"
        },
        {
          "internalType": "contract DonationNFT",
          "name": "donationNFT",
          "type": "address"
        },
        {
          "internalType": "address",
          "name": "_charityOwner",
          "type": "address"
        }
      ],
      "stateMutability": "nonpayable",
      "type": "constructor"
    },
    {
      "anonymous": false,
      "inputs": [
        {
          "indexed": true,
          "internalType": "address",
          "name": "donor",
          "type": "address"
        },
        {
          "indexed": true,
          "internalType": "address",
          "name": "charity",
          "type": "address"
        },
        {
          "indexed": false,
          "internalType": "uint256",
          "name": "amount",
          "type": "uint256"
        },
        {
          "indexed": false,
          "internalType": "uint256",
          "name": "tokenId",
          "type": "uint256"
        }
      ],
      "name": "Donation",
      "type": "event"
    },
    {
      "anonymous": false,
      "inputs": [
        {
          "indexed": true,
          "internalType": "address",
          "name": "charity",
          "type": "address"
        },
        {
          "indexed": true,
          "internalType": "address",
          "name": "supplier",
          "type": "address"
        },
        {
          "indexed": false,
          "internalType": "uint256",
          "name": "amount",
          "type": "uint256"
        }
      ],
      "name": "Purchase",
      "type": "event"
    },
    {
      "inputs": [],
      "name": "charityOwner",
      "outputs": [
        {
          "internalType": "address",
          "name": "",
          "type": "address"
        }
      ],
      "stateMutability": "view",
      "type": "function"
    },
    {
      "inputs": [
        {
          "internalType": "uint256",
          "name": "amount",
          "type": "uint256"
        }
      ],
      "name": "donate",
      "outputs": [],
      "stateMutability": "nonpayable",
      "type": "function"
    },
    {
      "inputs": [
        {
          "internalType": "address",
          "name": "supplier",
          "type": "address"
        },
        {
          "internalType": "uint256",
          "name": "amount",
          "type": "uint256"
        }
      ],
      "name": "purchase",
      "outputs": [],
      "stateMutability": "nonpayable",
      "type": "function"
    },
    {
      "inputs": [
        {
          "internalType": "address",
          "name": "_supplier",
          "type": "address"
        }
      ],
      "name": "registerSupplier",
      "outputs": [],
      "stateMutability": "nonpayable",
      "type": "function"
    },
    {
      "inputs": [
        {
          "internalType": "address",
          "name": "_supplier",
          "type": "address"
        }
      ],
      "name": "removeSupplier",
      "outputs": [],
      "stateMutability": "nonpayable",
      "type": "function"
    }
  ],
  "bytecode": "0x60806040523480156200001157600080fd5b5060405162000e4f38038062000e4f833981810160405281019062000037919062000147565b826000806101000a81548173ffffffffffffffffffffffffffffffffffffffff021916908373ffffffffffffffffffffffffffffffffffffffff16021790555081600160006101000a81548173ffffffffffffffffffffffffffffffffffffffff021916908373ffffffffffffffffffffffffffffffffffffffff16021790555080600260006101000a81548173ffffffffffffffffffffffffffffffffffffffff021916908373ffffffffffffffffffffffffffffffffffffffff16021790555050505062000247565b6000815190506200011381620001f9565b92915050565b6000815190506200012a8162000213565b92915050565b60008151905062000141816200022d565b92915050565b6000806000606084860312156200015d57600080fd5b60006200016d8682870162000130565b9350506020620001808682870162000119565b9250506040620001938682870162000102565b9150509250925092565b6000620001aa82620001d9565b9050919050565b6000620001be826200019d565b9050919050565b6000620001d2826200019d565b9050919050565b600073ffffffffffffffffffffffffffffffffffffffff82169050919050565b62000204816200019d565b81146200021057600080fd5b50565b6200021e81620001b1565b81146200022a57600080fd5b50565b6200023881620001c5565b81146200024457600080fd5b50565b610bf880620002576000396000f3fe608060405234801561001057600080fd5b50600436106100575760003560e01c80630f5f817a1461005c5780636ecc75af146100785780638de9322214610096578063cf7f5e5f146100b2578063f14faf6f146100ce575b600080fd5b610076600480360381019061007191906107b7565b6100ea565b005b6100806101d5565b60405161008d9190610941565b60405180910390f35b6100b060048036038101906100ab91906107e0565b6101fb565b005b6100cc60048036038101906100c791906107b7565b61046c565b005b6100e860048036038101906100e39190610845565b610557565b005b600260009054906101000a900473ffffffffffffffffffffffffffffffffffffffff1673ffffffffffffffffffffffffffffffffffffffff163373ffffffffffffffffffffffffffffffffffffffff161461017a576040517f08c379a000000000000000000000000000000000000000000000000000000000815260040161017190610a1c565b60405180910390fd5b6000600360008373ffffffffffffffffffffffffffffffffffffffff1673ffffffffffffffffffffffffffffffffffffffff16815260200190815260200160002060006101000a81548160ff02191690831515021790555050565b600260009054906101000a900473ffffffffffffffffffffffffffffffffffffffff1681565b600260009054906101000a900473ffffffffffffffffffffffffffffffffffffffff1673ffffffffffffffffffffffffffffffffffffffff163373ffffffffffffffffffffffffffffffffffffffff161461028b576040517f08c379a000000000000000000000000000000000000000000000000000000000815260040161028290610a1c565b60405180910390fd5b600360008373ffffffffffffffffffffffffffffffffffffffff1673ffffffffffffffffffffffffffffffffffffffff16815260200190815260200160002060009054906101000a900460ff16610317576040517f08c379a000000000000000000000000000000000000000000000000000000000815260040161030e906109bc565b60405180910390fd5b60008054906101000a900473ffffffffffffffffffffffffffffffffffffffff1673ffffffffffffffffffffffffffffffffffffffff1663a9059cbb83836040518363ffffffff1660e01b8152600401610372929190610993565b602060405180830381600087803b15801561038c57600080fd5b505af11580156103a0573d6000803e3d6000fd5b505050506040513d601f19601f820116820180604052508101906103c4919061081c565b610403576040517f08c379a00000000000000000000000000000000000000000000000000000000081526004016103fa906109dc565b60405180910390fd5b8173ffffffffffffffffffffffffffffffffffffffff163373ffffffffffffffffffffffffffffffffffffffff167f22e3ae3a20c49dce14046235895c7a3ffc0a6a5f3577c370177ad45fa619485d836040516104609190610a3c565b60405180910390a35050565b600260009054906101000a900473ffffffffffffffffffffffffffffffffffffffff1673ffffffffffffffffffffffffffffffffffffffff163373ffffffffffffffffffffffffffffffffffffffff16146104fc576040517f08c379a00000000000000000000000000000000000000000000000000000000081526004016104f390610a1c565b60405180910390fd5b6001600360008373ffffffffffffffffffffffffffffffffffffffff1673ffffffffffffffffffffffffffffffffffffffff16815260200190815260200160002060006101000a81548160ff02191690831515021790555050565b60008054906101000a900473ffffffffffffffffffffffffffffffffffffffff1673ffffffffffffffffffffffffffffffffffffffff166323b872dd3330846040518463ffffffff1660e01b81526004016105b49392919061095c565b602060405180830381600087803b1580156105ce57600080fd5b505af11580156105e2573d6000803e3d6000fd5b505050506040513d601f19601f82011682018060405250810190610606919061081c565b610645576040517f08c379a000000000000000000000000000000000000000000000000000000000815260040161063c906109fc565b60405180910390fd5b6000600160009054906101000a900473ffffffffffffffffffffffffffffffffffffffff1673ffffffffffffffffffffffffffffffffffffffff1663f24c9f0633846040518363ffffffff1660e01b81526004016106a4929190610993565b602060405180830381600087803b1580156106be57600080fd5b505af11580156106d2573d6000803e3d6000fd5b505050506040513d601f19601f820116820180604052508101906106f6919061086e565b90503073ffffffffffffffffffffffffffffffffffffffff163373ffffffffffffffffffffffffffffffffffffffff167f9a3ad7d1530a1c9e215f59a73425f48c5798be3c0e70009388bf37dc616e2ac88484604051610757929190610a57565b60405180910390a35050565b60008135905061077281610b7d565b92915050565b60008151905061078781610b94565b92915050565b60008135905061079c81610bab565b92915050565b6000815190506107b181610bab565b92915050565b6000602082840312156107c957600080fd5b60006107d784828501610763565b91505092915050565b600080604083850312156107f357600080fd5b600061080185828601610763565b92505060206108128582860161078d565b9150509250929050565b60006020828403121561082e57600080fd5b600061083c84828501610778565b91505092915050565b60006020828403121561085757600080fd5b60006108658482850161078d565b91505092915050565b60006020828403121561088057600080fd5b600061088e848285016107a2565b91505092915050565b6108a081610a91565b82525050565b60006108b3601083610a80565b91506108be82610ad9565b602082019050919050565b60006108d6600f83610a80565b91506108e182610b02565b602082019050919050565b60006108f9600f83610a80565b915061090482610b2b565b602082019050919050565b600061091c601f83610a80565b915061092782610b54565b602082019050919050565b61093b81610acf565b82525050565b60006020820190506109566000830184610897565b92915050565b60006060820190506109716000830186610897565b61097e6020830185610897565b61098b6040830184610932565b949350505050565b60006040820190506109a86000830185610897565b6109b56020830184610932565b9392505050565b600060208201905081810360008301526109d5816108a6565b9050919050565b600060208201905081810360008301526109f5816108c9565b9050919050565b60006020820190508181036000830152610a15816108ec565b9050919050565b60006020820190508181036000830152610a358161090f565b9050919050565b6000602082019050610a516000830184610932565b92915050565b6000604082019050610a6c6000830185610932565b610a796020830184610932565b9392505050565b600082825260208201905092915050565b6000610a9c82610aaf565b9050919050565b60008115159050919050565b600073ffffffffffffffffffffffffffffffffffffffff82169050919050565b6000819050919050565b7f496e76616c696420737570706c69657200000000000000000000000000000000600082015250565b7f5075726368617365206661696c65640000000000000000000000000000000000600082015250565b7f446f6e6174696f6e206661696c65640000000000000000000000000000000000600082015250565b7f43616c6c6572206973206e6f74207468652063686172697479206f776e657200600082015250565b610b8681610a91565b8114610b9157600080fd5b50565b610b9d81610aa3565b8114610ba857600080fd5b50565b610bb481610acf565b8114610bbf57600080fd5b5056fea264697066735822122007f9f20c033d6f80755c7dd96617b1d5e3da12f34387a98976144acc4e2f59b064736f6c63430008040033",
  "linkReferences": {},
  "deployedLinkReferences": {}
}